:040000009EEF00F07F
:1000080000C015F0F2A208D01650000A05E1186ADF
:10001800196A23D8010E166EF2A204D01650010AEE
:10002800D8B4166AF0A00AD01650000A07E1010EEB
:10003800186E000E196E11D8010E166EF0A004D0BD
:100048001650010AD8B4166AF292F09015C000F062
:02005800110095
:08005A00060ED56EF2941200AF
:10006200D59E000E191802E1000E181804E1F70ED1
:10007200D66EC20ED76E000E191802E1010E1818C4
:0E00820004E1BE0ED66EF00ED76ED58E1200C3
:1000900022D03F0E8C6E3ED0060E8C6E3BD05B0E97
:1000A0008C6E38D04F0E8C6E35D0660E8C6E32D082
:1000B0006D0E8C6E2FD07D0E8C6E2CD0070E8C6E3C
:1000C00029D07F0E8C6E26D06F0E8C6E23D0836A63
:1000D000FF0E176E1FD01A50000ADBE01A50010AFB
:1000E000DBE01A50020ADBE01A50030ADBE01A5088
:1000F000040ADBE01A50050ADBE01A50060ADBE0CE
:100100001A50070ADBE01A50080ADBE01A50090A05
:06011000DBE0DDD7120068
:100116000900F5CFE6FF0006FBE10106F9E1120052
:100126000F0EC112926A0F0E806E938281829380A7
:060136008180956A1200B1
:10013C00166AFF0E176E186A196AEFDF88DFF28EE7
:10014C00D08EF292F288F086F08CF090F18AF18CDD
:10015C00F2A406D080DF172A17C01AF093DFF294AE
:04016C00F7D7FFD7EB
:020000040030CA
:0E000000000C1F1EFF8381FF0FC00FE00F409A
:00000001FF
